:100000000C9463000C948B000C948B000C948B006C
:100010000C948B000C948B000C948B000C94710D41
:100020000C948B000C948B000C948B000C948B0024
:100030000C948B000C948B000C948B000C948B0014
:100040000C942E0E0C948B000C94F1020C943F0334
:100050000C948B000C948B000C948B000C948B00F4
:100060000C948B000C948B000000000024002700EF
:100070002A0000000000250028002B0000000000DE
:1000800023002600290004040404040404040202DA
:100090000202020203030303030301020408102007
:1000A0004080010204081020010204081020000012
:1000B0000007000201000003040600000000000029
:1000C00000008E01AB0411241FBECFEFD8E0DEBFCD
:1000D000CDBF11E0A0E0B1E0E0E7F2E202C00590A0
:1000E0000D92AE3CB107D9F713E0AEECB1E001C020
:1000F0001D92A236B107E1F710E0C6ECD0E004C0D3
:100100002297FE010E943211C23CD107C9F70E941A
:100110007A050C948D000C940000F8940C94361120
:10012000EF92FF920F93DF93CF93CDB7DEB7609737
:100130000FB6F894DEBF0FBECDBFA82F002309F481
:1001400061C07E010894E11CF11C88E0F701119266
:100150008A95E9F729833A834B835C836D837E8399
:10016000AF83988780E2801BE82FFF27E7FDF0959B
:100170004D815E816F817885181684F01D861E86FC
:100180001F86188A882799278E1B9F0B04C0769597
:100190006795579547958A95D2F728C0202F332722
:1001A00027FD3095DB01CA01022E04C0B695A79544
:1001B000979587950A94D2F78D879E87AF87B88BDE
:1001C00004C0440F551F661F771FEA95D2F7898137
:1001D0009A81AB81BC8104C0B695A7959795879508
:1001E0002A95D2F7482B592B6A2B7B2B49875A87A4
:1001F0006B877C8729853A854B855C856D857E85F7
:10020000AF8598898A2F60960FB6F894DEBF0FBE2F
:10021000CDBFCF91DF910F91FF90EF900895EF92B6
:10022000FF920F93DF93CF93CDB7DEB760970FB6F2
:10023000F894DEBF0FBECDBFA82F002309F461C024
:100240007E010894E11CF11C88E0F70111928A9567
:10025000E9F729833A834B835C836D837E83AF8385
:10026000988780E2801BE82FFF27E7FDF095498102
:100270005A816B817C81181684F019861A861B8638
:100280001C86882799278E1B9F0B04C0440F551F7F
:10029000661F771F8A95D2F728C0202F332727FDA6
:1002A0003095DB01CA01022E04C0880F991FAA1FD6
:1002B000BB1F0A94D2F789879A87AB87BC8704C093
:1002C0007695679557954795EA95D2F78D819E81EA
:1002D000AF81B88504C0880F991FAA1FBB1F2A953C
:1002E000D2F7482B592B6A2B7B2B4D875E876F8764
:1002F000788B29853A854B855C856D857E85AF85B4
:1003000098898A2F60960FB6F894DEBF0FBECDBFD6
:10031000CF91DF910F91FF90EF9008958EEC91E0D7
:1003200064E070E00E94DC050895CF93DF938EECCB
:1003300091E06FEC71E00E94FC0C892B79F1209127
:10034000D3013091D4014091D5015091D6016091F3
:10035000670170916801C9E6D1E0E0E0F0E00AC011
:1003600089919991A991B991281739074A075B0793
:1003700039F03196E617F7079CF360E071E006C0AC
:10038000EE0FFF1FE35CFE4F6081718189E692E012
:100390000E9467058EEC91E00E94E1058091DD01ED
:1003A0009091DE0101969093DE018093DD0160E182
:1003B00077E20E94FB10892BA9F41092DE011092C3
:1003C000DD0160E070E08091DF019091E001892B18
:1003D00011F461E070E07093E0016093DF018DE063
:1003E0000E944902DF91CF9108958DE061E00E9463
:1003F0000A028DE060E00E9449028EEC91E00E94CA
:10040000130E89E692E040E855E260E070E00E9459
:100410007A030895CF93DF93482F50E0CA018656A0
:100420009F4FFC0134914A575F4FFA018491882312
:1004300069F190E0880F991FFC01E859FF4FA591E1
:10044000B491FC01EE58FF4FC591D491662351F44D
:100450002FB7F8948C91932F909589238C93888152
:1004600089230BC0623061F42FB7F8948C91932FDD
:10047000909589238C938881832B88832FBF06C016
:100480009FB7F8948C91832B8C939FBFDF91CF9172
:100490000895482F50E0CA0182559F4FFC012491D6
:1004A000CA0186569F4FFC0194914A575F4FFA014B
:1004B0003491332309F440C0222351F1233071F0E9
:1004C000243028F42130A1F0223011F514C0263058
:1004D000B1F02730C1F02430D9F404C080918000FD
:1004E0008F7703C0809180008F7D8093800010C043
:1004F00084B58F7702C084B58F7D84BD09C080919B
:10050000B0008F7703C08091B0008F7D8093B000E2
:10051000E32FF0E0EE0FFF1FEE58FF4FA591B491CF
:100520002FB7F894662321F48C919095892302C00B
:100530008C91892B8C932FBF0895682F70E0CB018D
:1005400082559F4FFC012491CB0186569F4FFC01A1
:1005500044916A577F4FFB019491992319F420E04D
:1005600030E03CC0222351F1233071F0243028F4D4
:100570002130A1F0223011F514C02630B1F027301F
:10058000C1F02430D9F404C0809180008F7703C07B
:10059000809180008F7D8093800010C084B58F771C
:1005A00002C084B58F7D84BD09C08091B0008F7773
:1005B00003C08091B0008F7D8093B000892F90E0C0
:1005C000880F991F84589F4FFC01A591B4918C917D
:1005D00020E030E0842311F021E030E0C9010895EB
:1005E00008951F920F920FB60F9211242F933F93ED
:1005F0004F938F939F93EF93FF938091C00082FD61
:100600001DC04091C60020912102309122022F5F2F
:100610003F4F2F733070809123029091240228174E
:10062000390771F0E0912102F0912202EF51FE4F63
:100630004083309322022093210202C08091C600A1
:10064000FF91EF919F918F914F913F912F910F903B
:100650000FBE0F901F901895E0917502F0917602F1
:10066000E05CFF4F8191919120813181821B930B3E
:100670008F739070892B11F00E94F00208951F92E1
:100680000F920FB60F9211242F933F938F939F9346
:10069000EF93FF932091650230916602809167028B
:1006A000909168022817390731F48091C1008F7D3D
:1006B0008093C10014C0E0916702F0916802EB5D85
:1006C000FD4F2081809167029091680201968F739F
:1006D000907090936802809367022093C600FF9108
:1006E000EF919F918F913F912F910F900FBE0F909F
:1006F0001F901895AF92BF92DF92EF92FF920F93E7
:100700001F93CF93DF93EC017A018B01DD244030FE
:1007100081EE580780E0680780E0780711F0DD245B
:10072000D39491E0A92EB12CEC89FD89DD2069F0EC
:10073000C50108A002C0880F991F0A94E2F78083C0
:1007400060E079E08DE390E005C0108260E874E835
:100750008EE190E0A80197010E940E1121503040D7
:1007600040405040569547953795279580E1203079
:10077000380720F0DD2011F0DD24D6CFE889F98993
:100780003083EA89FB89208319A2EE89FF894081A1
:1007900021E030E0C9010C8C02C0880F991F0A9437
:1007A000E2F7482B4083EE89FF894081C9010D8C17
:1007B00002C0880F991F0A94E2F7482B4083EE8904
:1007C000FF894081C9010E8C02C0880F991F0A94CD
:1007D000E2F7482B4083EE89FF8980810F8C02C0AD
:1007E000220F331F0A94E2F7209528232083DF91FC
:1007F000CF911F910F91FF90EF90DF90BF90AF903E
:100800000895DC011C96ED91FC911D97E05CFF4F73
:100810002191319180819181281B390B2F73307088
:10082000C9010895DC011C96ED91FC911D97E05CD7
:10083000FF4F20813181E054F040DF01AE5BBF4FBC
:100840008D919C9111972817390719F42FEF3FEFDD
:1008500007C08D919C91E80FF91F8081282F30E00F
:10086000C9010895DC011C96ED91FC911D97E05C97
:10087000FF4F20813181E054F040DF01AE5BBF4F7C
:100880008D919C9111972817390719F42FEF3FEF9D
:1008900010C08D919C911197E80FF91F20818D91C7
:1008A0009C91119701968F73907011969C938E93E3
:1008B00030E0C9010895DC0191968C9191978823CD
:1008C00039F05496ED91FC915597808186FFF9CFD0
:1008D00091961C920895CF93DF93EC01EE85FF85EE
:1008E000E05CFF4F20813181E054F0402F5F3F4FAB
:1008F0002F733070DF01AE5BBF4F8D919C911197CC
:1009000028173907D1F3E05CFF4F80819181E054D3
:10091000F040E80FF91F6083EE85FF85E05CFF4F34
:1009200031832083EE89FF89208181E090E00F8C64
:1009300002C0880F991F0A94E2F7282B208381E0D8
:1009400089A3EC89FD8980818064808381E090E0C7
:10095000DF91CF91089510926C0210926B0288EE95
:1009600093E0A0E0B0E080936D0290936E02A093BC
:100970006F02B093700281EC91E090936A028093D1
:10098000690281EE91E0909376028093750285E290
:1009900092E0909378028093770285EC90E09093B8
:1009A0007A028093790284EC90E090937C028093A9
:1009B0007B0280EC90E090937E0280937D0281EC3C
:1009C00090E09093800280937F0282EC90E090937D
:1009D00082028093810286EC90E09093840280935F
:1009E000830284E08093850283E08093860287E01F
:1009F0008093870285E08093880281E0809389025A
:100A00000895CF92DF92EF92FF920F931F93CF93AF
:100A1000DF937C016B018A01C0E0D0E00FC0D601FA
:100A20006D916D01D701ED91FC910190F081E02D68
:100A3000C7010995C80FD91F0150104001151105B4
:100A400071F7CE01DF91CF911F910F91FF90EF9041
:100A5000DF90CF900895EF92FF920F931F938C0138
:100A6000DC01ED91FC910190F081E02D6DE00995A4
:100A70007C01D801ED91FC910190F081E02DC8013D
:100A80006AE009959C012E0D3F1DC9011F910F9130
:100A9000FF90EF900895CF93DF93EC0161157105FE
:100AA00019F420E030E00FC0DB010D900020E9F7E1
:100AB0001197A61BB70BE881F9810280F381E02D25
:100AC000AD0109959C01C901DF91CF910895EF9285
:100AD000FF920F931F937C010E944B058C01C7016D
:100AE0000E942B05080F191FC8011F910F91FF903D
:100AF000EF900895CF93DF930E94760E0E94F50148
:100B0000CCE2D3E00E9495012097E1F30E942C03F0
:100B1000F9CFDF92EF92FF920F931F93CF93DF9362
:100B2000EC01882777FD8095982F0E94B50F7B01F7
:100B30008C0120E030E040E45FE30E94651020E09B
:100B400030E048E452E40E941A0F0E94820FC61758
:100B5000D70714F4DD241CC0DD24C801B70120E050
:100B600030E040EA5FE30E94651020E030E048E4B6
:100B700052E40E941A0F20E030E040E85FE30E9458
:100B8000B20E0E94820F6C177D0714F0DD24D394FF
:100B90008D2D90E0DF91CF911F910F91FF90EF90FD
:100BA000DF9008956C597F4F0E948905089564561F
:100BB00070400E948905089560938B0210928D0207
:100BC000089582E080938C02109258030895AF92AA
:100BD000BF92CF92DF92EF92FF920F931F93CF932A
:100BE000DF936B01DB011A96CD91DC911B978A8113
:100BF0009B8168E273E20E94D205892B09F480C0D0
:100C000080915803843009F08CC08C819D816AECFE
:100C100078E00E94D705892B09F483C08E819F81DB
:100C200060E372E00E94D205892B09F47AC0F601D4
:100C3000118610868FEF9FEFAFEFBFEF8483958310
:100C4000A683B78381E090E09183808354C08C8138
:100C50009D8164E971E10E94D705892B09F450C098
:100C60002696EE24FF24870123E0A22EB12C888152
:100C7000998160E372E00E94D205892B09F440C09B
:100C80008A819B8160E476E00E94D705892B69F018
:100C9000EE0CFF1C001F111F81E090E0A0E0B0E00F
:100CA000E82AF92A0A2B1B2B0CC08A819B8160E35E
:100CB00072E00E94D705892B19F1EE0CFF1C001F72
:100CC000111F249691E4A916B10429F0A2E0B0E026
:100CD000AA0EBB1ECCCF80E290E0F6019187808700
:100CE000D6011496ED92FD920D931C93179781E017
:100CF00090E08D939C9321E030E040E050E004C010
:100D000020E030E040E050E0B901CA01DF91CF912E
:100D10001F910F91FF90EF90DF90CF90BF90AF9019
:100D2000089580915803843458F391CFAF92BF92C5
:100D3000CF92DF92EF92FF920F931F93CF93DF93A7
:100D40006B01809158038A3108F480C0DB011A9648
:100D5000CD91DC911B9788819981845F914080F4CB
:100D6000FB01118610868FEF9FEFAFEFBFEF8483FB
:100D70009583A683B78389E090E09183808361C0E7
:100D80008A819B8160E679E00E94D205892B09F473
:100D90005DC02696EE24FF24870162E0A62EB12CCA
:100DA00030C0229788819981229668E572E00E947E
:100DB000D705892B79F18881998160EB74E00E94D5
:100DC000D205892B69F0EE0CFF1C001F111F81E07A
:100DD00090E0A0E0B0E0E82AF92A0A2B1B2B0CC017
:100DE0008881998168E572E00E94D205892B71F1B2
:100DF000EE0CFF1C001F111FA2E0B0E0AA0EBB1EEC
:100E000024968091580395012F5F3F4F90E028175B
:100E100039073CF2C501019795958795F6019187B1
:100E200080870C971CF41186108610C0D60114968A
:100E3000ED92FD920D931C93179782E090E08D93B5
:100E40009C9321E030E040E050E004C020E030E03E
:100E500040E050E0B901CA01DF91CF911F910F919D
:100E6000FF90EF90DF90CF90BF90AF900895AF923A
:100E7000BF92CF92DF92EF92FF920F931F93CF9387
:100E8000DF936B01809158038A3108F489C0DB013C
:100E90001A96CD91DC911B9788819981805293405D
:100EA00080F4FB01118610868FEF9FEFAFEFBFEF4D
:100EB00084839583A683B78389E090E091838083C0
:100EC0006AC08A819B816CEA7DE00E94D205892BF1
:100ED00009F466C08C819D816CEA7DE00E94D20598
:100EE000892B09F45DC02896EE24FF248701A3E036
:100EF000AA2EB12C30C0229788819981229666EB68
:100F000073E00E94D705892B79F18881998160E689
:100F100079E00E94D205892B69F0EE0CFF1C001FBE
:100F2000111F81E090E0A0E0B0E0E82AF92A0A2B46
:100F30001B2B0CC0888199816CEB72E00E94D2055A
:100F4000892B71F1EE0CFF1C001F111FA2E0B0E015
:100F5000AA0EBB1E24968091580395012F5F3F4F28
:100F600090E0281739073CF2C501019795958795C0
:100F7000F601918780870C971CF41186108610C0AB
:100F8000D6011496ED92FD920D931C93179789E06C
:100F900090E08D939C9321E030E040E050E004C06D
:100FA00020E030E040E050E0B901CA01DF91CF918C
:100FB0001F910F91FF90EF90DF90CF90BF90AF9077
:100FC00008956F927F928F929F92AF92BF92CF922D
:100FD000DF92EF92FF920F931F93CF93DF934B011A
:100FE00080915803823208F47AC0DB011A96CD91C1
:100FF000DC911B978A819B816EE571E00E94D2058E
:10100000892B09F46CC036E0A32EB12CAC0EBD1EAA
:10101000EE24FF24870122E0C22ED12C37C0E50147
:101020002297888199816EE977E00E94D205892B09
:1010300069F0EE0CFF1C001F111F81E090E0A0E0A2
:10104000B0E0E82AF92A0A2B1B2B0DC08881998170
:101050006EEE72E00E94D205892B09F440C0EE0CBE
:10106000FF1C001F111FD5018D919C916EE571E051
:101070000E94D705E4E0F0E0AE0EBF1E892B11F40C
:1010800063010FC022E030E0C20ED31E3601089487
:10109000611C711C8091580390E0681679060CF46D
:1010A000BECFC601019795958795D40119969C935B
:1010B0008E93189740972CF419961C921E921897AD
:1010C0000EC0F401E482F582068317838AE090E083
:1010D0009183808321E030E040E050E004C020E0D4
:1010E00030E040E050E0B901CA01DF91CF911F919B
:1010F0000F91FF90EF90DF90CF90BF90AF909F90B7
:101100008F907F906F9008956F927F928F929F92B1
:10111000AF92BF92CF92DF92EF92FF920F931F9305
:10112000CF93DF93FB013A0159016801DA012D9158
:101130003C91848595852817390724F071E0E72EC6
:10114000F12C56C0C901880F991F0284F385E02D48
:10115000E80FF91F80819181982E892E20FD06C00D
:101160000CE91FEF51E0E52EF12C04C004E610E07D
:10117000EE24FF24B8016C0D7D1D892D982D0E9451
:101180008905892B19F021E030E020C0E601CC0F61
:10119000DD1FB8016C0F7D1F892D982D0E948905D8
:1011A000892B19F022E030E011C0CC0DDD1D0C0FB1
:1011B0001D1F892D982DB8010E948905892B21F4C6
:1011C000EE24EA94FE2C14C023E030E0F501808187
:1011D0009181019691838083821793074CF011824D
:1011E0001082D3018D919C91119701968D939C93C0
:1011F000C701DF91CF911F910F91FF90EF90DF908A
:10120000CF90BF90AF909F908F907F906F900895F8
:101210002F923F924F925F926F927F928F929F9206
:10122000AF92BF92CF92DF92EF92FF920F931F93F4
:10123000DF93CF9300D000D000D0CDB7DEB71C0134
:101240005B01809158038D3008F47EC081E090E00E
:101250009A8389831C821B82A3E08A2E912C8C0E98
:101260009D1EC1012E010894411C511CA201940134
:1012700009E713E00E948408892B09F065C0C101C9
:10128000B501A20194010E948408019709F05CC095
:10129000C101B501A20194010E948408892B09F0C3
:1012A00053C0CC24DD24760166247724C4018D82CA
:1012B0009E832FC0C101B501A2012D813E8109E7A6
:1012C00013E00E9484084C01C101B501A2012D81E7
:1012D0003E810E94840821E08216910479F4892BD2
:1012E00099F5CC0CDD1CEE1CFF1C81E090E0A0E029
:1012F000B0E0C82AD92AEA2AFB2A08C0892821F5A1
:10130000019711F5CC0CDD1CEE1CFF1C0894611C30
:10131000711C8091580390E029813A812817390780
:101320004CF2D50119967C926E921897F501C48201
:10133000D582E682F78283E090E09183808321E08A
:1013400030E040E050E004C020E030E040E050E019
:10135000B901CA0126960FB6F894DEBF0FBECDBF05
:10136000CF91DF911F910F91FF90EF90DF90CF9081
:10137000BF90AF909F908F907F906F905F904F90B5
:101380003F902F9008952F923F924F925F926F92CD
:101390007F928F929F92AF92BF92CF92DF92EF9205
:1013A000FF920F931F93DF93CF93CDB7DEB72897AC
:1013B0000FB6F894DEBF0FBECDBF1C014B01DB01A1
:1013C0001C968D919C911D97181619060CF0C4C09F
:1013D00081E090E09A8389831A960D911C911B9766
:1013E000F801828193816AE67AE00E94D205892B16
:1013F00009F4B2C082E090E09A838983D801149600
:101400008D919C91159769E773E00E94D705892B10
:1014100009F4A2C083E090E09A8389831C821B8236
:1014200003E0A02EB12CAC0EBD1EC101B4013E01E3
:101430000894611C711CA30195010CEB11E00E9442
:101440008408892B09F088C0C101B401A30195016A
:101450000E948408019709F07FC0CC24DD24760126
:1014600044245524C501AD829E83C3016F829887B1
:1014700056C0C101B4014F8158852D813E810CEBCE
:1014800011E00E9484083C01B3E04B16510461F462
:10149000C101B4014F8158852D813E810E9484088D
:1014A0006816790609F058C0C101B4014F8158850A
:1014B0002D813E810CEB11E00E9484085C01E3E089
:1014C0004E16510459F4C101B4014F8158852D8144
:1014D0003E810E948408A816B906F1F561147104D2
:1014E00089F4F1E0AF16B104B9F5CC0CDD1CEE1CAB
:1014F000FF1C81E090E0A0E0B0E0C82AD92AEA2AE7
:10150000FB2A0AC091E06916710431F5AB2821F578
:10151000CC0CDD1CEE1CFF1C0894411C511C2981C5
:101520003A81D4011C968D919C911D9728173907FB
:101530000CF49FCF19965C924E921897F401C482D6
:10154000D582E682F78284E090E09183808321E077
:1015500030E040E050E004C020E030E040E050E007
:10156000B901CA0128960FB6F894DEBF0FBECDBFF1
:10157000CF91DF911F910F91FF90EF90DF90CF906F
:10158000BF90AF909F908F907F906F905F904F90A3
:101590003F902F9008956F927F928F929F92AF927B
:1015A000BF92CF92DF92EF92FF920F931F93CF9350
:1015B000DF937B01FB01C285D3858A819B816EEA23
:1015C0007DE00E94D205892B09F474C08C819D8135
:1015D00066ED76E00E94D205892B09F46BC0269651
:1015E00000E010E0DD24CC249924882477246624AC
:1015F00083E0A82EB12C8881998166EF71E00E946A
:10160000D205892B09F456C08A819B816CED74E068
:101610000E94D705892B69F098014D2D5C2D692D0D
:10162000782D872D962D01E00E940F01022F016079
:1016300013C08A819B8160E971E00E94D705892BE4
:10164000C9F198014D2D5C2D692D782D872D962D92
:1016500001E00E940F01022F132FD42EC52E962ECB
:10166000872E782E692E2496F1E6AF16B10429F064
:1016700082E090E0A80EB91EBECFC801F701048336
:101680009583468357839801872D962D00E20E940B
:101690009000C901F7012283938387E090E0918352
:1016A000808380E390E09187808721E030E040E014
:1016B00050E004C020E030E040E050E0B901CA0151
:1016C000DF91CF911F910F91FF90EF90DF90CF901E
:1016D000BF90AF909F908F907F906F9008958F9262
:1016E0009F92AF92BF92CF92DF92EF92FF920F93B1
:1016F0001F93CF93DF936B0180915803823209F0DF
:10170000B2C0DB011A96CD91DC911B978A819B8137
:1017100068E572E00E94D205892B09F4A4C080918B
:10172000580321E030E0281B3109220F331FC21B70
:10173000D30B8881998168E572E00E94D205892BDC
:1017400009F491C0F601118610868FEF9FEFAFEF7D
:10175000BFEF84839583A683B78388E090E091836D
:10176000808369C080915803813208F469C0D50133
:1017700014968D919C91159760EA7FE00E94D705A1
:10178000892B09F45DC0E5012696EE24FF2487012C
:1017900033E0832E912C8881998168E572E00E9464
:1017A000D205892B09F44CC08A819B8160E476E0E4
:1017B0000E94D705892B69F0EE0CFF1C001F111F3A
:1017C00081E090E0A0E0B0E0E82AF92A0A2B1B2B88
:1017D0000CC08A819B8166E272E00E94D705892B4A
:1017E00079F1EE0CFF1C001F111FA2E0B0E08A0E81
:1017F0009B1E2496B3E28B16910469F6E6E4F0E0B2
:10180000AE0EBF1ED5018D919C9168E572E00E94DD
:10181000D205892BA9F080E190E0F60191878087BD
:10182000D6011496ED92FD920D931C93179788E0C4
:1018300090E08D939C9321E030E040E050E004C0C4
:1018400020E030E040E050E0B901CA01DF91CF91E3
:101850001F910F91FF90EF90DF90CF90BF90AF90CE
:101860009F908F900895F601A284B384D5011296BB
:101870008D919C91139760E47FE10E94D205892BA2
:1018800009F070CFDDCF2F923F924F925F926F920F
:101890007F928F929F92AF92BF92CF92DF92EF9200
:1018A000FF920F931F93DF93CF9300D0CDB7DEB796
:1018B0001B01FB0184859585863091052CF420E081
:1018C00030E040E050E081C0F5ECAF2EFDE9BF2EE6
:1018D000FCE1CF2EF1E8DF2EE6E04E2E512C9C01EC
:1018E000220F331F3A83298359C0F101A285B385A2
:1018F000F2013497EA0FFB1FE080F180A40DB51DC3
:101900006D917C9180E090E00E94B30F3B014C010F
:1019100000E010E0C801B7010E94B30F7B018C0109
:101920002DEC3CEC4CE45FE30E9465109B01AC01A4
:10193000C401B3010E94160F88231CF400E010E0DC
:1019400018C0C401B3012DEC3CEC4CE45FE30E94F1
:1019500065109B01AC01C801B7010E94160F082F4A
:10196000112707FD10950027110F001F11270F5F8A
:101970001F4FC601B50123E931E040E051E00E946C
:10198000C8105801CC24B7FCC094DC2CA626B7267E
:10199000C826D92622E030E0420E531E89819A8162
:1019A0004816590609F0A1CFF101A482B582C6827A
:1019B000D78280E290E0918780878FEF9FEF9183BD
:1019C000808321E030E040E050E0B901CA010F908F
:1019D0000F90CF91DF911F910F91FF90EF90DF90CB
:1019E000CF90BF90AF909F908F907F906F905F90BF
:1019F0004F903F902F9008950F931F93CF93DF93B5
:101A00008C01EB0180E992E09B878A8780915803E3
:101A10008C871D8680918C02853009F057C0C801E3
:101A20000E94E705611571058105910509F051C016
:101A3000C801BE010E9496066115710581059105D8
:101A400009F047C0C801BE010E9437076115710542
:101A500081059105F1F5C801BE010E94E1076115FC
:101A6000710581059105A9F5C801BE010E9408090B
:101A7000611571058105910561F5C801BE010E94DE
:101A8000C309611571058105910519F5C801BE01EC
:101A90000E94CB0A6115710581059105D1F4C80139
:101AA000BE010E946F0B611571058105910589F4D6
:101AB000C801BE010E94430C6115710581059105A5
:101AC00041F482E080938C021092580320E030E0D1
:101AD00002C021E030E0C901DF91CF911F910F9149
:101AE00008951F920F920FB60F9211242F933F93D8
:101AF0004F935F936F937F938F939F93AF93BF9316
:101B0000EF93FF9380918B020E949D02482F80915A
:101B10008E0290918F02019690938F0280938E0295
:101B200080915803843618F085E080938C02809170
:101B30008C028330D1F0843020F4823009F059C017
:101B400006C0843071F1853009F053C04CC0442385
:101B500009F04FC080918E0290918F0284369105DA
:101B600008F443C0109258031EC0413009F041C030
:101B700080915803E82FF0E020918E0230918F027F
:101B8000EE0FFF1FE557FD4F368325838F5F809350
:101B9000580310928F0210928E0284E080938C0280
:101BA00028C04423B9F480915803E82FF0E0209135
:101BB0008E0230918F02EE0FFF1FE557FD4F3683E7
:101BC00025838F5F8093580310928F0210928E02AC
:101BD00083E0E4CF80918E0290918F02853691054B
:101BE00040F085E0DBCF442321F410928F02109265
:101BF0008E0280918D02882329F0442311F42D9ABE
:101C000001C02D98FF91EF91BF91AF919F918F915E
:101C10007F916F915F914F913F912F910F900FBEE8
:101C20000F901F901895F89492E09093B0009093C5
:101C3000B10084E68093B300E2EBF0E01082E08133
:101C400090937000789482E080938C0210925803F5
:101C500080918B0260E00E940A0208951F920F9209
:101C60000FB60F9211242F933F938F939F93AF93AF
:101C7000BF9380915D0390915E03A0915F03B0914B
:101C80006003309161030196A11DB11D232F2D5FCB
:101C90002D3720F02D570196A11DB11D2093610312
:101CA00080935D0390935E03A0935F03B093600302
:101CB0008091590390915A03A0915B03B0915C030A
:101CC0000196A11DB11D8093590390935A03A093CF
:101CD0005B03B0935C03BF91AF919F918F913F9154
:101CE0002F910F900FBE0F901F901895789484B588
:101CF000826084BD84B5816084BD85B5826085BD08
:101D000085B5816085BDEEE6F0E0808181608083ED
:101D1000E1E8F0E0108280818260808380818160D0
:101D20008083E0E8F0E0808181608083E1EBF0E097
:101D3000808184608083E0EBF0E08081816080833B
:101D4000EAE7F0E080818460808380818260808324
:101D50008081816080838081806880831092C1004F
:101D600008955058BB27AA270ED075C166D130F010
:101D70006BD120F031F49F3F11F41EF45BC10EF4DF
:101D8000E095E7FB51C1E92F77D180F3BA176207DD
:101D900073078407950718F071F49EF58FC10EF450
:101DA000E0950B2EBA2FA02D0B01B90190010C016B
:101DB000CA01A0011124FF27591B99F0593F50F483
:101DC000503E68F11A16F040A22F232F342F4427DB
:101DD000585FF3CF469537952795A795F0405395D3
:101DE000C9F77EF41F16BA0B620B730B840BBAF0A3
:101DF0009150A1F0FF0FBB1F661F771F881FC2F70E
:101E00000EC0BA0F621F731F841F48F48795779521
:101E10006795B795F7959E3F08F0B3CF9395880FD8
:101E200008F09927EE0F979587950895D9D008F473
:101E300081E008950CD00FC107D140F0FED030F002
:101E400021F45F3F19F0F0C0511139C1F3C014D132
:101E500098F39923C9F35523B1F3951B550BBB2771
:101E6000AA2762177307840738F09F5F5F4F220F1E
:101E7000331F441FAA1FA9F333D00E2E3AF0E0E817
:101E800030D091505040E695001CCAF729D0FE2F63
:101E900027D0660F771F881FBB1F261737074807F5
:101EA000AB07B0E809F0BB0B802DBF01FF279358AB
:101EB0005F4F2AF09E3F510568F0B6C000C15F3FFA
:101EC000ECF3983EDCF3869577956795B795F79593
:101ED0009F5FC9F7880F911D9695879597F908958B
:101EE000E1E0660F771F881FBB1F62177307840727
:101EF000BA0720F0621B730B840BBA0BEE1F88F736
:101F0000E095089504D06894B111D9C00895BCD06B
:101F100088F09F5790F0B92F9927B751A0F0D1F0D2
:101F2000660F771F881F991F1AF0BA95C9F712C05C
:101F3000B13081F0C3D0B1E00895C0C0672F782FD1
:101F40008827B85F39F0B93FCCF3869577956795C8
:101F5000B395D9F73EF490958095709561957F4F34
:101F60008F4F9F4F0895E89409C097FB3EF49095DA
:101F70008095709561957F4F8F4F9F4F9923A9F062
:101F8000F92F96E9BB279395F695879577956795F1
:101F9000B795F111F8CFFAF4BB0F11F460FF1BC035
:101FA0006F5F7F4F8F4F9F4F16C0882311F096E9C8
:101FB00011C0772321F09EE8872F762F05C0662376
:101FC00071F096E8862F70E060E02AF09A95660F2F
:101FD000771F881FDAF7880F9695879597F90895E8
:101FE000990F0008550FAA0BE0E8FEEF161617062A
:101FF000E807F907C0F012161306E407F50798F092
:10200000621B730B840B950B39F40A2661F0232BAA
:10201000242B252B21F408950A2609F4A140A69526
:102020008FEF811D811D089597F99F6780E870E00B
:1020300060E008959FEF80EC089500240A9416163E
:10204000170618060906089500240A9412161306A6
:10205000140605060895092E0394000C11F4882334
:1020600052F0BB0F40F4BF2B11F460FF04C06F5F50
:102070007F4F8F4F9F4F089557FD9058440F551F26
:1020800059F05F3F71F04795880F97FB991F61F0FA
:102090009F3F79F087950895121613061406551F71
:1020A000F2CF4695F1DF08C0161617061806991FDD
:1020B000F1CF86957105610508940895E894BB27D2
:1020C00066277727CB0197F908950BD0C4CFB5DFEA
:1020D00028F0BADF18F0952309F0A6CFABCF112472
:1020E000EECFCADFA0F3959FD1F3950F50E0551FB7
:1020F000629FF001729FBB27F00DB11D639FAA275D
:10210000F00DB11DAA1F649F6627B00DA11D661FAB
:10211000829F2227B00DA11D621F739FB00DA11DCC
:10212000621F839FA00D611D221F749F3327A00D86
:10213000611D231F849F600D211D822F762F6A2F22
:1021400011249F5750408AF0E1F088234AF0EE0FA7
:10215000FF1FBB1F661F771F881F91505040A9F7B4
:102160009E3F510570F060CFAACF5F3FECF3983EE1
:10217000DCF3869577956795B795F795E7959F5F1B
:10218000C1F7FE2B880F911D9695879597F90895B5
:10219000629FD001739FF001829FE00DF11D649F4B
:1021A000E00DF11D929FF00D839FF00D749FF00DD7
:1021B000659FF00D9927729FB00DE11DF91F639F78
:1021C000B00DE11DF91FBD01CF0111240895AA1B17
:1021D000BB1B51E107C0AA1FBB1FA617B70710F012
:1021E000A61BB70B881F991F5A95A9F78095909544
:1021F000BC01CD01089597FB092E07260AD077FD73
:1022000004D0E5DF06D000201AF4709561957F4F69
:102210000895F6F7909581959F4F0895A1E21A2EA3
:10222000AA1BBB1BFD010DC0AA1FBB1FEE1FFF1F7A
:10223000A217B307E407F50720F0A21BB30BE40BCA
:10224000F50B661F771F881F991F1A9469F7609511
:102250007095809590959B01AC01BD01CF010895CB
:10226000EE0FFF1F0590F491E02D0994F894FFCF35
:102270000043482D0043480043482B007C3C3C0071
:102280003E3E7C003E7C7C002D002B004551003002
:10229000003130302B003230302B0031003200332F
:1022A00000340035003600370038003900010105E0
:1022B0000108010C011001140118011A011C011F71
:1022C00001210126012B012D012F0131013301359F
:1022D00001370139013B0115005DA2FF009D62FF3E
:1022E000001DE2FF00DD22FF00FD02FF003DC2FFF6
:1022F000001FE0FF0057A8FF006F90FF009768FFE6
:10230000006798FF004FB0FF00CF30FF00E718FFD5
:1023100000857AFF00EF10FF00C738FF00A55AFFC5
:1023200000BD42FF00B54AFF00AD52FF00000000B3
:0E233000006B0401050104320412045B04007A
:00000001FF
